:100000004BC0000064C0000062C0000060C000007F
:100010005EC000005CC000005AC0000058C0000074
:1000200056C0000054C0000052C0000050C0000084
:100030004EC000004CC000004AC0000048C0000094
:1000400046C0000044C0000042C0000040C00000A4
:100050003EC000003CC000003AC0000038C00000B4
:1000600036C0000034C0000032C0000030C00000C4
:100070002EC000002CC000002AC0000028C00000D4
:1000800026C0000024C0000022C0000020C00000E4
:100090001EC000001CC0000011241FBECFEFD0E125
:1000A000DEBFCDBF11E0A0E0B1E0E4E4F1E002C0CA
:1000B00005900D92A030B107D9F711E0A0E0B1E0B2
:1000C00001C01D92A030B107E1F702D039C098CF2E
:1000D00011B887EC84B99FEF97B91AB887E08DB94A
:1000E00010BA82E084BD85E085BD17BC97BD85B59B
:1000F000856085BD16BC80E485B998B91AC090E0CA
:100100008130A9F0813020F08230A1F483E013C067
:100110002091CE002337E1F791E00CC02091CE0072
:10012000A99B05C0A99A233721F092E003C0233789
:10013000A9F790E0892F0799E2CF80E090E0089539
:04014000F894FFCF61
:00000001FF
