:100000000C9446000C945D000C945D000C945D0013
:100010000C945D000C945D000C945D000C945D00EC
:100020000C945D000C945D000C945D000C945D00DC
:100030000C945D000C945D000C945D000C945D00CC
:100040000C945D000C945D000C945D000C945D00BC
:100050000C945D000C945D000C945D000C945D00AC
:100060000C945D000C945D000C945D000C945D009C
:100070000C945D000C945D000C945D000C945D008C
:100080000C945D000C945D000C945D0011241FBE67
:10009000CFEFD0E1DEBFCDBF11E0A0E0B1E0EAE7F5
:1000A000F1E000E00BBF02C007900D92A030B10755
:1000B000D9F70E945F000C94BB000C94000080EF05
:1000C00087BB88BB60E620E931E050E240E468BBD2
:1000D000819918C088E893E1F9013197F1F7019708
:1000E000D9F718BA88E893E1F9013197F1F7019748
:1000F000D9F758BB80E197E2F9013197F1F7019701
:10010000D9F7E5CF809918C088E893E1F9013197D4
:10011000F1F70197D9F718BA88E893E1F901319717
:10012000F1F70197D9F748BB80E197E2F9013197E0
:10013000F1F70197D9F7CBCF80B390E0837090703F
:10014000892B09F0C4CF88E893E1F9013197F1F7E1
:100150000197D9F718BA88E893E1F9013197F1F7D7
:100160000197D9F748BB80E197E2F9013197F1F7A0
:0A0170000197D9F7ACCFF894FFCF48
:00000001FF
